:040000000CEF00F011
:10000800FACF02F0FBCF03F0E9CF04F082ED06F05F
:10001800DAEF07F020EEB7F010EE80F0200EDECF1A
:10002800E6FFE82EFCD720EED7F010EE60F0200EA9
:10003800DECFE6FFE82EFCD7000E0001A06F000E11
:100048000001A66F000E0001A06F000E0001A46F52
:10005800000E0001A36F000E0001A26F000E3D6E9E
:10006800000E3C6E000E0001A16F000E3E6E0101F5
:1000780000513E0AD8B404D0000E0101006F46D2E8
:10008800000E0101006F01C140F04050410AD8A4A0
:1000980002D0A00E17D04050420AD8A402D0B00E09
:1000A80011D04050430AD8A402D0C00E0BD0405003
:1000B800440AD8A402D0D00E05D04050580AD8A47B
:1000C80003D0000E426E0AD04168000E406E000E4A
:1000D800426E070E0001A46F000E2CD23E0E0001E6
:1000E800A06F020E0001A66F0001A651010D0101CB
:1000F800000EF324D96E0101010EF420DA6EDF50F0
:100108000001A76F0001A7510D0AD8B411D2000150
:10011800A7519FEC0AF0D8A085D0000E0001A56F6A
:100128000001A551010D0001600EF324D96E0001F4
:10013800000EF420DA6E0001A7C0DFFF0001A52B36
:100148001F0E0001A56501D0E1D10001A62B3F0ECD
:100158000001A66501D0DAD10001A651010D010107
:10016800000EF324D96E0101010EF420DA6EDF507F
:100178000001A76F0001A7519FEC0AF0D8B0D0D7B3
:10018800200E0001A55DD8B019D00001A551010DC0
:100198000001600EF324D96E0001000EF420DA6E1F
:1001A800000EDF6E0001000E1A6E0001600E196E5F
:1001B800EAEC06F019C0A2F01AC0A3F00001A051A1
:1001C800230AD8A40BD0A2C047F0A3C048F0000E61
:1001D8000001606F000E0001A06F9ED10001A40510
:1001E800D8A405D0A2C03CF0A3C03DF095D1000131
:1001F800A451080AD8A490D1400E0001A15DD8B03E
:100208000ED00001A151010D0101820EF324D96E17
:100218000101010EF420DA6E0001A2C0DFFF000127
:10022800A12B7AD10001A75101EC0AF0D8A047D13F
:10023800000E0001A56F0001A551010D0001800EFF
:10024800F324D96E0001000EF420DA6E0001A7C075
:10025800DFFF0001A52B1F0E0001A56501D056D1B7
:100268000001A62B3F0E0001A66501D04FD1000169
:10027800A651010D0101000EF324D96E0101010EF2
:10028800F420DA6EDF500001A76F0001A75101ECDE
:100298000AF0D8B0D0D70001A7515F0AD8B4CBD79D
:1002A8000001A7519FEC0AF0D8B0C5D7200E000175
:1002B800A55DD8B00DD00001A551010D0001800E3B
:1002C800F324D96E0001000EF420DA6E000EDF6E02
:1002D8007F0E146ECE0E136E0001000E166E000116
:1002E800800E156EC5EC08F014501310D8A402D077
:1002F800010ECAD07F0E146EF60E136E0001000EAA
:10030800166E0001800E156EC5EC08F0145013101F
:10031800D8A402D0060EB8D07F0E146EDE0E136E6F
:100328000001000E166E0001800E156EC5EC08F077
:1003380014501310D8A402D0020EA6D07F0E146E4B
:10034800E30E136E0001000E166E0001800E156E8E
:10035800C5EC08F014501310D8A402D0030E94D0A2
:100368007F0E146ED40E136E0001000E166E00017F
:10037800800E156EC5EC08F014501310D8A404D0E4
:10038800000E466E010E13D07F0E146ED90E136E3A
:100398000001000E166E0001800E156EC5EC08F007
:1003A80014501310D8A405D0000E466E020E456EE8
:1003B800B3D07F0E146EFA0E136E0001000E166E87
:1003C8000001800E156EC5EC08F014501310D8A467
:1003D80002D0040E59D07F0E146EE80E136E000181
:1003E800000E166E0001800E156EC5EC08F0145054
:1003F8001310D8A402D0050E47D07F0E146E8D0EB0
:10040800136E0001000E166E0001800E156EC5EC0D
:1004180008F014501310D8A402D0090E35D07F0E5E
:10042800146EF20E136E0001000E166E0001800E9F
:10043800156EC5EC08F014501310D8A402D00A0E9B
:1004480023D07F0E146E820E136E0001000E166EFE
:100458000001800E156EC5EC08F014501310D8A4D6
:1004680002D00C0E11D07F0E146E910E136E000187
:10047800000E166E0001800E156EC5EC08F01450C3
:100488001310D8A404D00B0E0001A46F45D07F0E22
:10049800146EED0E136E0001000E166E0001800E34
:1004A800156EC5EC08F014501310D8A435D0080EFA
:1004B8000001A46F000E486E000E476E2DD000019B
:1004C800A75172EC09F0D8A023D0A7C0A0F0000172
:1004D800A751230AD8A420D00001A62B400E000162
:1004E800A65DD8B00ED00001A651010D0101000E85
:1004F800F324D96E0101010EF420DA6EDF500001F9
:10050800A76F0001A751530AD8B406D0070E12D01E
:100518000001A75117EC0AF00001A62B400E0001BC
:10052800A65DD8B005D00001A7510D0AD8A4DCD526
:100538000001A4511200000E0001B66F000E000168
:10054800B36F410E0001A86FA1EC07F0849084926C
:10055800050EE6EC09F0809280948096809A819E40
:10056800819C819A8198839E839C839A8398000EAC
:10057800836E83967D0E206E7D0E1F6ED6EC05F081
:10058800E6EC0AF0000E0001B66F7D0E206EC70E75
:100598001F6ED6EC05F0000E146E000E136EEFEC15
:1005A8000AF0396E3904D8A402D0838601D0839624
:1005B800040081B616D0010E0001B36F04EC0BF0F5
:1005C800000E146E000E136EB3C015F0CAEC09F0DD
:1005D80083868482000E146E640E136E0EEC09F08E
:1005E8001AD081B416D0000E0001B36F04EC0BF0E2
:1005F800000E146E000E136EB3C015F0CAEC09F0AD
:1006080083968480000E146E640E136E0EEC09F04F
:1006180002D0849084923F04D8A4CAD7000E3F6EBB
:10062800000E416E0EEC00F00001B66F0001B651ED
:10063800090AD8A40AD0090EE6EC09F07E0E206E4D
:10064800EF0E1F6ED6EC05F023D00001B6510B0A51
:10065800D8A409D07F0E206E620E1F6ED6EC05F06E
:1006680041EC0AF015D00001B6510C0AD8A409D003
:100678007F0E206E510E1F6ED6EC05F055EC0AF079
:1006880007D047C01BF048C01CF040500EEC05F0E6
:100698000001B651060AD8A40AD07F0E206E720E49
:1006A8001F6ED6EC05F0000E0001B66FACD100014C
:1006B800B651040AD8A40AD0040EE6EC09F07F0E5D
:1006C800206E040E1F6ED6EC05F09DD10001B651C8
:1006D800050AD8A40AD0050EE6EC09F07F0E206EB4
:1006E800180E1F6ED6EC05F08ED10001B6510A0A1D
:1006F800D8A409D0E6EC0AF07F0E206E3E0E1F6EDD
:10070800D6EC05F080D10001B6670ED07F0E206EC2
:10071800AC0E1F6E40C021F0226A47C023F048C0CB
:1007280024F0D6EC05F06FD10001B605D8A454D05A
:100738003CC014F04550EAEC08F0416606D011ECD4
:1007480008F016C0B4F017C0B5F04150800AD8A41C
:1007580007D07F0E206E2B0E1F6ED6EC05F053D1FE
:100768004150D8B409D07F0E206EC30E1F6ED6EC50
:1007780005F0BFEC0AF047D13E04D8A412D07E0E93
:10078800206E050E1F6E40C021F0226A47C023F07C
:1007980048C024F0B4C025F0B5C026F0D6EC05F06A
:1007A80032D13E6612D07E0E206E290E1F6E40C0DA
:1007B80021F0226A47C023F048C024F0B4C025F0D5
:1007C800B5C026F0D6EC05F01ED17F0E206EB80E0F
:1007D8001F6ED6EC05F017D10001B651020AD8A455
:1007E80052D0455090EC09F0416606D011EC08F063
:1007F80016C0B4F017C0B5F04150800AD8A407D08D
:100808007F0E206E2B0E1F6ED6EC05F0FCD04150EB
:10081800D8B409D07F0E206EC30E1F6ED6EC05F03B
:10082800BFEC0AF0F0D03E04D8A412D07E0E206EA1
:10083800050E1F6E40C021F0226A47C023F048C051
:1008480024F0B4C025F0B5C026F0D6EC05F0DBD016
:100858003E6612D07E0E206E290E1F6E40C021F01B
:10086800226A47C023F048C024F0B4C025F0B5C0C0
:1008780026F0D6EC05F0C7D07F0E206EB80E1F6E9E
:10088800D6EC05F0C0D00001B651030AD8A446D072
:1008980080B007D07E0E206E8A0E1F6ED6EC05F053
:1008A800B2D04550ADEC09F04150800AD8A407D029
:1008B8007F0E206E2B0E1F6ED6EC05F0A4D0415093
:1008C800D8B407D07F0E206EC30E1F6ED6EC05F08D
:1008D8009AD045044610D8A40ED07E0E206EBF0EC6
:1008E8001F6E40C021F0226A47C023F048C024F0A0
:1008F800D6EC05F088D04550020A4610D8A483D01B
:100908007E0E206ED70E1F6E40C021F0226A47C0AF
:1009180023F048C024F0D6EC05F075D00001B6519C
:10092800070AD8A408D07F0E206E9F0E1F6ED6EC43
:1009380005F0416868D00001B651080AD8A463D010
:1009480042660AD07E0E206E4D0E1F6E40C021F00A
:10095800226AD6EC05F057D0050E146E425072ECA0
:1009680008F0000E146E640E136E0EEC09F0050EFE
:10097800166E425042EC08F00101000141C1A9F095
:100988000001AA6B0101000142C1ABF00001AC6B90
:100998000101000143C1ADF00001AE6B010100018E
:1009A80044C1AFF00001B06B0101000145C1B1F0D5
:1009B8000001B26B41661ED07E0E206E6C0E1F6E5B
:1009C80040C021F0226AA9C023F0AAC024F0ABC01D
:1009D80025F0ACC026F0ADC027F0AEC028F0AFC0FF
:1009E80029F0B0C02AF0B1C02BF0B2C02CF0D6EC80
:1009F80005F009D07E0E206EA50E1F6E40C021F0B6
:100A0800226AD6EC05F0000E146E140E136E0EEC6E
:100A180009F0CED5286E2850410AD8A403D0838E79
:100A2800839C06D02850420AD8A404D0839E838C85
:100A3800839A07D02850430AD8A405D0839E839C64
:100A4800838A83980ED02850440AD8A405D0839E60
:100A5800839C839A838805D0839E839C839A8398FA
:100A6800A0D01C50800A800F210ED8B41B5CD8B0CF
:100A78000AD01C50800AF36E800EF35C000ED8B4C6
:100A88001B5CD8B004D041501009416E8AD0FF0ECB
:100A98001B24266EFF0E1C20276E26C013F027C0CD
:100AA80014F0000E166E080E156E4FEC07F013C00A
:100AB80024F014C025F0010E2424296E000E2520F0
:100AC8002A6E24C01DF025C01EF0D8901D361E3693
:100AD800D8901D361E36D8901D361E361DC021F002
:100AE8001EC022F021C01DF022C01EF01D1E1E1EB9
:100AF8001D4A1E2A26501D241F6E27501E20206EB8
:100B08001FC03AF020C03BF03A500F0B236E8350C1
:100B1800F00B2310836E1C501B10D8B442D029044C
:100B28002A10D8A40BD0819C819A8198000E146E4B
:100B38000A0E136E0EEC09F0818E2FD02950020A8E
:100B48002A10D8A40BD0819E819A8198000E146E29
:100B58000A0E136E0EEC09F0818C1FD02950030A7F
:100B68002A10D8A40BD0819E819C8198000E146E07
:100B78000A0E136E0EEC09F0818A0FD02950040A70
:100B88002A10D8A40ED0819E819C819A000E146EE2
:100B98000A0E136E0EEC09F08188808280848086AC
:100BA800808A1200000E326E210E316E9BD03850B2
:100BB800250AD8B404D03850F8EC0AF093D0000EC7
:100BC8002F6E0ED031C0D9FF32C0DAFFDF50386E39
:100BD800020E3126000E32223850F8EC0AF082D08C
:100BE8001FC0F6FF20C0F7FF1F4A202A0800F5CFD4
:100BF80038F03850000AD8B480D0630AD8B4E2D7A5
:100C0800070AD8B403D00D0AD8A4E6D731C0D9FF53
:100C180032C0DAFFDECF33F0DDCF34F0020E3126FA
:100C2800000E32223450800AF36E800EF35C000E00
:100C3800D8B4335CD8B006D0030E2F12336C341EF0
:100C4800D8B0342A010E386E3850050AD8B416D0F8
:100C58003850020D730EF324F66E7D0EF420F76EF5
:100C68000900F5CF2DF00900F5CF2EF02D50335C9B
:100C78002E503458D8A002D0382AE6D72FC02DF0ED
:100C8800030E2D16D8B403D02D0EF8EC0AF038C098
:100C980030F024D03050020D730EF324F66E7D0E22
:100CA800F420F76E0900F5CF15F00A00F5CF16F01D
:100CB80033C013F034C014F09CEC08F013C01AF0E1
:100CC80014C01BF0000E1D6E0A0E1C6E30EC09F0ED
:100CD8001A50300F386E3850F8EC0AF030063028C9
:100CE800D8A4D8D71FC0F6FF20C0F7FF1F4A202A74
:100CF8000800F5CF38F038665AD712000600EACF58
:100D080005F0E1CF06F0E2CF07F0D9CF08F0DACF4F
:100D180009F0F3CF0AF0F4CF0BF0F6CF0CF0F7CFD1
:100D28000DF0F8CF0EF0F5CF0FF0ABA206D0AB98D0
:100D3800AB88AECF10F0AECF10F09EAA26D09E9A08
:100D4800AECF11F01150DBEC0AF0126E12503E0AD1
:100D5800D8A402D0000E446E400E445CD8B00DD02A
:100D68004450010D0101000EF324D96E0101010E5A
:100D7800F420DA6E12C0DFFF442A12500D0AD8A4FC
:100D880004D0000E446E010E3F6E9EA002D09E90CD
:100D9800432A0FC0F5FF0EC0F8FF0DC0F7FF0CC0C7
:100DA800F6FF0BC0F4FF0AC0F3FF09C0DAFF08C062
:100DB800D9FF07C0E2FF06C0E1FF05C0EAFF04C093
:100DC800E9FF03C0FBFF02C0FAFF110002D0194A75
:100DD8001A2A19C0D9FF1AC0DAFFDF50200AD8B47E
:100DE800F6D719C0D9FF1AC0DAFFDF50090AD8B4FC
:100DF800EED7000E1F6E000E1E6E000E1D6E2D0E1D
:100E080019C0D9FF1AC0DAFFDF6202D01D2A23D029
:100E18002B0E19C0D9FF1AC0DAFFDF621ED01BD013
:100E28001EC013F01FC014F0000E166E0A0E156EC9
:100E380069EC0AF019C0D9FF1AC0DAFFDF501B6E3F
:100E48001C6A13501B2614501C22D00E1B241E6E25
:100E5800FF0E1C201F6E194A1A2A19C0D9FF1AC082
:100E6800DAFFDF509FEC0AF0D8B0DAD71D50D8B4BB
:100E78000DD01EC01BF01FC01CF01B1E1C1E1B4AE1
:100E88001C2A1BC019F01CC01AF004D01EC019F08F
:100E98001FC01AF01200000E186E1650800AF36E6A
:100EA800800EF35C000ED8B4155CD8B006D0156C73
:100EB800161ED8B0162A010E186E1450800AF36E4A
:100EC800800EF35C000ED8B4135CD8B006D0136C57
:100ED800141ED8B0142A010E181A000E1A6E000E2D
:100EE800196E16501510D8B41CD0010E176E04D008
:100EF800D89015361636172A16AEFAD7D89019365E
:100F08001A361550135C16501458D8A005D0155031
:100F1800135E1650145A1980D89016321532172EAF
:100F2800EDD71850D8B404D0196C1A1ED8B01A2AA4
:100F380019C013F01AC014F012000F0EC16E7F0E04
:100F4800C06E000EC26E000E806E000E926E0F0E06
:100F5800936EF19E000E826EB10E946E000E836E3B
:100F6800000E956E000E846EF80E966E000ECD6E15
:100F7800CD98CD8ACD929E909D80CD80AC94EF0E79
:100F8800AF6EAC98AB8EAB88AB9A9D989D9AAC9C93
:100F9800AB9CAC8A000EF26E000E9D6E9D969D98DD
:100FA8009D8AF28C9D809D92F28E120001EE00F0D7
:100FB800820EEE6AE806FDE100EEB7F0400EEE6A3A
:100FC800E806FDE100EE3AF00B0EEE6AE806FDE1F8
:100FD800A20EF66E120EF76E000EF86E01EE82F09B
:100FE80010EE41F00900F5CFEEFFE550E150FAE1CF
:100FF8000E0EF66E160EF76E000EF86E00EE45F049
:1010080010EE04F00900F5CFEEFFE550E150FAE1EB
:10101800000EF86E00019FEF02F0CDEC0AF05F0EB3
:10102800AFEC0AF0FEEC0AF04110416E7CEC0AF0DD
:1010380013C018F014C019F0000E2CEC0AF07CEC68
:101048000AF013C01AF014C01BF01A50C00B1C6E23
:101058001C6602D0000E07D01C50C00AD8A402D0CB
:10106800010E01D0020E3E6E010E2CEC0AF0BFEC10
:101078000AF018C016F019C017F01200176E000E0B
:10108800416ECDEC0AF017500109AFEC0AF0FEEC06
:101098000AF04110416E000E186E1850010D010142
:1010A800410EF324D96E0101010EF420DA6E7CECB6
:1010B8000AF01350DF6E182A1650185CD8B004D006
:1010C800000E2CEC0AF003D0010E2CEC0AF016509E
:1010D800185CD8A0E2D7BFEC0AF01200156E000E1B
:1010E800416ECDEC0AF01550AFEC0AF0FEEC0AF0B8
:1010F8004110416E000E176E14D01750010D0101FA
:10110800820EF324D96E0101010EF420DA6EDF504D
:10111800166E1650AFEC0AF0FEEC0AF04110416E64
:10112800172A1450175CD8A0E8D7BFEC0AF01200B1
:10113800000E196E000E186E16501510D8B41CD07B
:10114800010E176E04D0D89015361636172A16AE2B
:10115800FAD7D890183619361550135C165014580B
:10116800D8A005D01550135E1650145A1880D89080
:1011780016321532172EEDD718C013F019C014F017
:10118800120004D0134A142A154A162A13C0F6FF6F
:1011980014C0F7FF0800F5CF17F015C0D9FF16C027
:1011A800DAFFDF5000081724186E186609D013C03C
:1011B800F6FF14C0F7FF0800F5500009D8A4E2D7DD
:1011C8001850136E146A13BE14061200156E000E22
:1011D800166ECDEC0AF05E0EAFEC0AF0FEEC0AF0EB
:1011E8004110416E1504D8A402D0080E01D0880E13
:1011F800166E1650AFEC0AF0FEEC0AF04110416E84
:101208001450AFEC0AF0FEEC0AF04110416EBFEC4E
:101218000AF01200000E166E000E156E16D0176832
:1012280017061728D8A4FCD7176817061728D8A4B4
:10123800FCD7176817061728D8A4FCD7176817060D
:101248001728D8A4FCD7154A162A1350155C145031
:101258001658D8B01200E3D71D501C10D8B418D0B7
:10126800010E1E6E04D0D8901C361D361E2A1DAEE7
:10127800FAD71C501A5C1D501B58D8A004D01C501B
:101288001A5E1D501B5AD8901D321C321E2EF1D7E3
:101298001AC01AF01BC01BF0120001020304050655
:1012A8000708000000000000000000000000000027
:1012B8000000000000000000000000000000000026
:1012C8000000000000000000000000000000000016
:1012D800000000000000000000000000136E200E57
:1012E800136403D02F0E136413D0390E136403D084
:1012F800400E13640DD05A0E136403D0600E1364AD
:1013080007D07A0E136406D07F0E135CD8B002D0D3
:10131800D88001D0D8901200146E000E156ECDEC56
:101328000AF05E0EAFEC0AF0FEEC0AF04110416ED6
:101338001404D8A402D0000E01D0800E156E1550EA
:10134800AFEC0AF0FEEC0AF04110416EBFEC0AF077
:101358001200146E000E156ECDEC0AF05E0EAFECA6
:101368000AF0FEEC0AF04110416E1404D8A402D031
:10137800280E01D0A80E156E1550AFEC0AF0FEEC41
:101388000AF04110416EBFEC0AF01200000E166E12
:1013980013C0A9FF15C0A8FFA69EA69CA684000E90
:1013A800F2BE010E166EF29E550EA76EAA0EA76E1D
:1013B800A682A6B2FED716B002D0F29E01D0F28E57
:1013C800A6941200136E1350090AD8A40AD080906C
:1013D800809280948096809A819E819C819A81983F
:1013E8000BD01350040AD8A402D0808001D080907A
:1013F800808280848086808A1200186E010E176EA3
:101408007B0E185CD8B004D0610E185CD8B007D039
:1014180018508FEC0AF0D8B002D0000E176E17C023
:1014280016F016301200156E010E146E1550200AB3
:10143800D8B40AD00E0E155CD8B004D0090E155CCD
:10144800D8B002D0000E146E14C013F0133012007E
:10145800136E9E9613A001D0C58A13B001D0C59A09
:10146800C588000E436E9EB603D0090E4364FBD7B1
:101478009EB602D0800E416E120004EC0BF0000EF6
:10148800146E000E136E010E156ECAEC09F08386F9
:101498008482000E146EC80E136E0EEC09F084924E
:1014A800120004EC0BF0000E146E000E136E000E0A
:1014B800156ECAEC09F083968480000E146EC80E6F
:1014C800136E0EEC09F08490120013501502F3CF3E
:1014D80017F0F4CF18F013501602F35018261450D2
:1014E8001502F350182617C013F018C014F0120094
:1014F8009E96C586000E436E9EB603D0090E4364C1
:10150800FBD79EB602D0800E416EC9CF15F015C02C
:1015180013F0146A1200156E000E146E5B0E155C43
:10152800D8B005D0400E156402D0010E146E14C058
:1015380013F013301200156E000E146E3A0E155C7F
:10154800D8B005D02F0E156402D0010E146E14C049
:1015580013F013301200136E9E9613C0C9FF000ECD
:10156800436E9EB603D0090E4364FBD79EB602D0E5
:10157800800E416E12009E96C584000E436E9EB684
:1015880003D0090E4364FBD79EB602D0800E416E8D
:1015980012009E96C580000E436E9EB603D0090EBB
:1015A8004364FBD79EB602D0800E416E1200016ED6
:1015B8007B0E015CD8B004D0600E016401D0019AA2
:1015C80001501200280EC66E090EC86E000EC76EB6
:1015D800BFEC0AF0120013C0A9FFA69CA69EA68025
:1015E80000F000F0A8501200136E9EA8FED713C09A
:1015F800ADFF1200000EC5BC010E136E1350120091
:0A160800A6A21200FDD701000100A8
:107D72000001000A006400E80310270D0D5374612E
:107D82007274696E672048756D6943616C20526533
:107D920076203220496E7465726661636520426F97
:107DA2006172642061742031323030204261756426
:107DB2002E20436F6D70696C656420362F32302F30
:107DC20032303230000D0D49324320696E697469D8
:107DD200616C697A65642E205761746368646F67A9
:107DE2002074696D657220656E61626C65643A200B
:107DF20034207365636F6E642074696D656F75748A
:107E02000D0D003E256320235325643A20506F74E4
:107E12002076616C75653D25642C204655534520BE
:107E2200424C4F574E0D003E256320235325643AA2
:107E320020506F742076616C75653D25642C204658
:107E42005553452052454144590D003E25633A2081
:107E52004552524F52202D20424144205241434B21
:107E6200204E554D4245522E0D003E25633A204F7D
:107E72004B2C2025642C2025642C2025642C2025C5
:107E8200642C2025642C0D0050524F4752414D4D19
:107E9200494E4720535550504C59204953204F4684
:107EA2004620003E25633A204E4F205241434B204C
:107EB200524553504F4E44494E472E0D003E2563C6
:107EC20020235325643A2050524F4752414D2050AF
:107ED2006F74310D003E256320235325643A2050F0
:107EE200524F4752414D20506F74320D0050726F05
:107EF2006772616D20737570706C79204F46462EE3
:107F02000D0050726F6772616D20737570706C79BD
:107F1200204F4E2E0D003520766F6C7420737570D5
:107F2200706C79204F4E2E0D00493243204552523B
:107F32004F522054494D454F55540D00493243206C
:107F42007265696E697469616C697A65640D004372
:107F52006F6D70726573736F72204F46462E0D00FF
:107F6200436F6D70726573736F72204F4E2E0D00EA
:107F7200434F4D20504F525420574F524B530D00F8
:107F8200434F4D50524553534F525F4F4646004365
:107F92004F4D50524553534F525F4F4E0042414452
:107FA20020434F4D4D414E4420003E256320235334
:107FB20025643A200D004655534553204241440D55
:107FC20000493243204552524F520D0057524954F4
:107FD2004500504F543100504F54320052454144F5
:107FE2000050524F47004E4F524D004C45445300F3
:0E7FF20049324300434F4D004F5450000000F1
:020000040020DA
:08000000FFFFFFFFFFFFFFFF00
:020000040030CA
:0E000000000C3E19FF87A5FF0FC00FE00F4058
:00000001FF
